:020000022000DC
:10600000000004205D630200BD630200BF63020064
:10601000C1630200C3630200C56302000000000008
:10602000000000000000000000000000C763020044
:10603000C963020000000000CB630200CD630200D0
:1060400095D70200CF630200A5D7020059EC0200E9
:106050006D0A030019860300ADD40200FDDB0200C7
:10606000CF630200CF630200CF630200CF63020060
:10607000CF630200CF630200CF630200CF63020050
:1060800051F902003D830200CF630200CF6302009A
:106090007D830200C174030039930300CF630200C3
:1060A000CF630200CF630200CF630200797F030059
:1060B000CF630200CF630200000000000000000078
:1060C000CF630200CF630200CF630200CF63020000
:1060D000E9F10200CF630200CF630200CF63020048
:1060E000CF630200CF630200CF6302000000000014
:1060F00000000000CF63020000000000CF63020038
:10610000000000000000000000000000000000008F
:10611000000000000000000000000000000000007F
:10612000000000000000000000000000000000006F
:10613000000000000000000000000000000000005F
:10614000000000000000000000000000000000004F
:10615000000000000000000000000000000000003F
:10616000000000000000000000000000000000002F
:10617000000000000000000000000000000000001F
:10618000000000000000000000000000000000000F
:1061900000000000000000000000000000000000FF
:1061A00000000000000000000000000000000000EF
:1061B00000000000000000000000000000000000DF
:1061C00000000000000000000000000000000000CF
:1061D00000000000000000000000000000000000BF
:1061E00000000000000000000000000000000000AF
:1061F000000000000000000000000000000000009F
:10620000354936480A1A02D0072291438D4634494F
:1062100034480A1A06D00722914381F309880222E2
:1062200082F3148830483149314A00F044F831484B
:106230003149324A00F03FF831483249324A00F0E1
:106240003AF832483249334A00F035F83248334997
:10625000334A00F030F833483349344A00F02BF821
:1062600033483449344A00F026F83448344900228F
:1062700000F02CF833483449002200F027F8334866
:106280003349091A082902DB002202604160314AC1
:1062900090471F481F49884205D00268043003B464
:1062A000904703BCF7E700208646EC46002000211B
:1062B000294A9047FEE7884207D0521A05D0037852
:1062C00001300B700131013AF9D17047884202D098
:1062D00002700130FAE770470000042000E003205C
:1062E0000000042000000420B84D040054220020C7
:1062F000FC220020D4630200D4630200041F0400C7
:10630000B84D040054220020542200209C20040098
:106310009C2004009C2004009C2004009C2004007D
:106320009C2004009C2004009C200400B84D040024
:10633000604E0400FC220020FC220020FC220020F1
:106340007037002070370020743700207437002029
:106350007457002085630200810A030010488047BB
:1063600010484FF00701884385460F4880470F4883
:10637000016841F470010160BFF34F8FBFF36F8F6D
:10638000FFF73EBF0A480B490B4A884207D0521A12
:1063900005D0037801300B700131013AF9D1704713
:1063A000D163020000000420A9BD020088ED00E0D6
:1063B000882004004022002054220020FEE7FEE74F
:1063C000FEE7FEE7FEE7FEE7FEE7FEE7FEE7FEE7A5
:0463D000704700BF53
:1063D400004870476837002000B585B00190019BE4
:1063E400002B0AD0074B43F001030393019B9B014D
:1063F4000293039B0298984700E000BF05B05DF844
:1064040004FB00BFB020040000B583B00190019BE1
:10641400002B0AD04FF47A70FFF7DEFF019B013B9B
:106424000193019B002BF5D100E000BF03B05DF8A0
:1064340004FB08B50BF0F4FA00BF08BD00B589B041
:10644400039002910192019B002B33D00023079308
:1064540003230693029A079B1344019A19460020CA
:106464000BF08EFA0590079A059B13440793019A43
:10647400059BD31A0193059B002B13D10F4B1B785B
:1064840083F00103DBB2002B13D10120FFF7BCFF23
:10649400069B013B0693069B002B03D1074B00226E
:1064A4001A7007E0054B01221A70019B002BD1D111
:1064B40000E000BF00BF09B05DF804FBFC2200202F
:1064C40000B585B003900291054B00934023054A23
:1064D4000299039800F012F800BF05B05DF804FBC0
:1064E400416402000023002082B0019000BF02B08A
:1064F400704782B0019000BF02B0704700B5A1B0F0
:106504000590049103920293049803F00DFC039BFD
:106514001593029B16930023179300238DF8603084
:1065240000231993229B1A9300231F930FA91F9BE7
:106534000822049803F0D2FC08231F93119B1293A2
:10654400BDF84030ADF84C30BDF84230ADF84E30B7
:1065540000238DF851309DF83C3003F00303DBB287
:10656400012B26D10F9BC3F395231C939DF83C303C
:10657400C3F3C203DBB28DF85030BDF83C30C3F333
:106584008313DBB21B931B9B9A0009A91F9B0498DE
:1065940003F0A4FC1B9B9B001F9A13441F9312AA95
:1065A40009A915AB009313461B9A1C9800F03AFEF8
:1065B4002FE09DF83C3003F00303DBB2022B28D11B
:1065C400BDF83E30C3F389139BB21E939DF83C3053
:1065D400C3F3C203DBB28DF850301E9B082B28BFD7
:1065E40008231D9307A91F9B1D9A049803F076FCAA
:1065F4001F9A1D9B13441F931E9A1D9BD31A1E930F
:1066040015AB12AA07A81D9900F0AEFE1E9B002B25
:10661400E3D1049803F097FB00BF21B05DF804FBBD
:1066240082B00190019BDB6801225A7100BF02B065
:106634007047000000B583B04FF0FF330193FFF7BC
:10664400F8FE0421084800F007FD0190019B002B8F
:1066540003DA0649412002F00EF80348FFF7E0FF91
:1066640000BF03B05DF804FB78200400C8200400D8
:1066740000B583B001900091019B1B681B680099D1
:106684000198984700BF03B05DF804FB00B583B0E0
:106694000190019B1B685B680198984700BF03B099
:1066A4005DF804FB00B583B00190019B1B689B68F7
:1066B4000198984700BF03B05DF804FB82B00190D5
:1066C4000B468DF80330019BDB689DF803201A719B
:1066D40000BF02B0704782B00190019BDB681B7958
:1066E400184602B0704782B00190019BDB6801221A
:1066F4005A7100BF02B0704782B00190019BDB6801
:106704005B79184602B0704700B585B001900091DE
:10671400154B3F229A60144B00221A60124B002240
:106724005A60114B0022C3F818210F4B0022C3F802
:1067340014210D4B012283F820210C4803F058FA50
:106744000390039B002B01D0039B08E0084805F04D
:106754003FF9084A084BD31ADB0802930023184672
:1067640005B05DF804FB00BF28250020841F040049
:106774002C21040078200400981F0400024A034BD3
:10678400D31ADB081846704778200400981F0400C9
:1067940000B587B001900B468DF803309DF80330A7
:1067A400002B1FD0FFF7EAFF04900023059313E0AA
:1067B400059B9B000E4A13440393039B1B881A46B4
:1067C400019B1B689A4204D1019B059A1A6000231D
:1067D40009E0059B01330593059A049B9A42E7D38C
:1067E400052300E00023184607B05DF804FB00BF52
:1067F4005422002000B585B001900B468DF803307B
:106804009DF8032001AB11461846FFF7C1FF03466C
:10681400002B07D1019BDB00054A13440393039B20
:106824001B6800E00023184605B05DF804FB00BFB8
:10683400981F040084B001900B468DF80330019B2F
:10684400DB00174A134402939DF80330013B032BEA
:106854001CD801A252F823F06D680200756802008A
:106864007D6802008768020002238DF80F3011E072
:1068740004238DF80F300DE0029B1B798DF80F3047
:1068840008E0029B5B798DF80F3003E000238DF85C
:106894000F3000BF9DF80F30184604B0704700BF9A
:1068A400981F040084B00190009100238DF80F30EC
:1068B400019B1B7803F00403DBB2002B24D0019B63
:1068C4001B78C3F30103DBB2012B02D0022B0CD0E3
:1068D40017E0009B1B68019A1288C2F38312D2B29C
:1068E40013449A1C009B1A600BE0009B1B68019ADE
:1068F4005288C2F3891292B213449A1C009B1A6004
:1069040000BF01238DF80F309DF80F30184604B0F6
:106914007047000000B585B00021074802F04DF82B
:106924000390039B0293029B83F310030193019B47
:10693400184605B05DF804FB4426002000B589B074
:106944000390029101920093039B1B0C0793FFF7A2
:10695400E1FF0690FFF712FF0246079B934204D320
:10696400214940F2A31001F086FE069B1904009B06
:106974005A1C0A9B1340079A0A431C4902339B0082
:106984000B445A60009A0A9B134002339B00174A37
:10699400134404330593039B03F00703D9B2059A08
:1069A400137861F3C5031370019B03F00F03D9B28D
:1069B400059A138861F389131380029BC3F31501AD
:1069C400059A136861F39F231360059A13780121D4
:1069D40061F301031370059A13786FF38203137044
:1069E40000BF09B05DF804FB3C2104002825002009
:1069F40000B58BB00390029113468DF80730039BCA
:106A04000233089301238DF8273000238DF81730C3
:106A14000DF11703184601F0E1FD394B1A68029B8A
:106A24001A60374B9A68364B5968354B1B68CB1A3A
:106A3400134401330793089A079B9A4207D901210B
:106A4400304802F031F800238DF8273000BF9DF85C
:106A54002730002B48D0002304939DF80730002BE7
:106A640017D09DF81030012262F301038DF8103025
:106A74009DF8103043F004038DF81030039B03F0AD
:106A84000F03DAB2BDF8103062F38913ADF8103099
:106A940016E09DF81030022262F301038DF81030E5
:106AA4009DF8103043F004038DF81030039BC3F3BA
:106AB40009039AB2BDF8123062F38F13ADF81230A5
:106AC4000F4B1A680E4B9B68134002339B000C4A11
:106AD400134404330693049A069B1A60084B1A68FD
:106AE400089B1344064A13609DF81730184601F0BA
:106AF4008BFD9DF8273018460BB05DF804FB00BFF2
:106B0400282500204426002000B58BB00590049170
:106B1400039202931F4B9B68079306AB012219460D
:106B24000298FFF765FF0346002B24D0069B02332F
:106B340009930023089311E0089B9B00039A1A44CD
:106B4400099B591C099107990B401268114902339A
:106B54009B000B445A60089B01330893089A029BDC
:106B64009A42E9D3069A079B00931346029A049922
:106B74000598FFF7E3FE074B93F82031002B05D06F
:106B840000BF00F07BF80346002BFAD100BF0BB026
:106B94005DF804FB2825002000B583B00190009126
:106BA4000023002200990198FFF7AEFF00BF03B055
:106BB4005DF804FB00B587B0039002910192019B3C
:106BC400059305AA012302990398FFF79DFF00BFCF
:106BD40007B05DF804FB00B587B003900291019201
:106BE4000093019B0493009B059304AA022302993A
:106BF4000398FFF789FF00BF07B05DF804FB00B5F9
:106C040089B00390029101920093019B0593009B2C
:106C140006930A9B079305AA032302990398FFF797
:106C240073FF00BF09B05DF804FB00B58BB003909F
:106C3400029101920093019B0593009B06930C9B88
:106C440007930D9B08930E9B099305AA05230299AC
:106C54000398FFF759FF00BF0BB05DF804FB000079
:106C6400054B5A68044B1B689A420CBF012300234E
:106C7400DBB21846704700BF2825002000B599B044
:106C8400FFF7EEFF0346002B01D00023A4E19B4B4A
:106C94000022C3F81821BFF34F8F00BF974B5B68E6
:106CA4000493964B9B681093049A109B13400233F1
:106CB4009B00924A1344043311930023129300233C
:106CC400139300230F9304AB19461198FFF7EAFDC1
:106CD4000346002B19D0894BD3F81831002B14D15B
:106CE400864B1A68049B9A4205D8844B1B68834AD6
:106CF4005360002370E1049A109B134002339B00FD
:106D04007E4A134404331193DDE70023179311E003
:106D1400049B5A1C0492109A1340179A920001A9DA
:106D24000A44764902339B000B445B681360179B4B
:106D340001331793179B012BEAD99DF8043003F014
:106D44000303DBB2022B40F09C80BDF80630C3F392
:106D540089139BB20D93BDF80630C3F389139BB21C
:106D6400502B28BF50239BB20C930C9BC3F30903F5
:106D74009AB2BDF8063062F38F13ADF806300C9B5F
:106D840008330B939DF80430C3F3C203DBB20F93B3
:106D94000B995B4802F037FF1290129B002B00F016
:106DA400D180129802F0C0FF01A9139B0822129807
:106DB40003F076F8139B08331393049BDA43109B78
:106DC400134001339B000A930C9A0A9B9A4242D9BE
:106DD4000A9B002B08D0049A109B134002339B009B
:106DE400464A1344043300E0464B08930A9B002BA5
:106DF40002D00A9BDBB201E00C9BDBB28DF81F30A2
:106E04000A9B002B01D03F4B00E0002306930A9B12
:106E1400002B06D00C9BDAB20A9BDBB2D31ADBB28E
:106E240000E000238DF817309DF81F20139B08996C
:106E3400129803F035F89DF81F30139A13441393F6
:106E4400069B002B16D09DF81720139B06991298C9
:106E540003F026F80EE0049A109B134002339B00C3
:106E6400264A134404330993139B0C9A09991298E4
:106E740003F016F80D9B03339A08049B1344049300
:106E840060E09DF8043003F00303DBB2012B59D119
:106E9400BDF80430C3F38313DBB2062B28BF0623EB
:106EA400DAB2BDF8043062F38913ADF80430BDF8EA
:106EB4000430C3F38313DBB202330E939DF8043022
:106EC400C3F3C203DBB20F930E9B9B0019460C481D
:106ED40002F099FE1290129B002B33D0129802F00C
:106EE40023FF01A9139B0822129802F0D9FF139BD8
:106EF40008331393002317931BE000BF28250020B9
:106F0400841F040034250020049B5A1C0492109A08
:106F1400134002339B00324A1344191D139B04226D
:106F2400129802F0BDFF139B04331393179B013394
:106F34001793BDF80430C3F38313DBB21A46179BCF
:106F44009342E1D3129B002B26D0254BD3F810316A
:106F5400169317E000238DF857301698FFF7CCFBF3
:106F64000346002B02D001238DF857309DF857308B
:106F7400002B03D012991698FFF77AFB169BDB6857
:106F84001B681693169B002BE4D1129802F0DBFECB
:106F9400049B134A536019E0114BD3F81031149336
:106FA40006E01498FFF77EFB149BDB681B681493C0
:106FB400149B002BF5D10B4A0B4BD31ADB081B0493
:106FC40043F0020309491846FFF7E6FDFFF748FEC0
:106FD400034683F00103DBB2184619B05DF804FBE5
:106FE40028250020E81F0400981F040098210400AD
:106FF40000B585B00023039323E0164BD3F810317A
:10700400029301238DF807300FE00298FFF763FB2A
:1070140003461A46039B934203D100238DF807309D
:1070240006E0029BDB681B680293029B002BECD1F9
:107034009DF80730002B01D0039B07E0039B01332D
:107044000393039B092BD8DD4FF0FF33184605B09B
:107054005DF804FB2825002000B585B001900B469F
:107064008DF80330FFF7C4FF0390039BB3F1FF3F98
:1070740001D1039B22E0039BDBB219460198FFF781
:107084001DFB104BD3F81031002B08D10D4A019B86
:10709400C2F81031019BDB6800221A600DE0094B35
:1070A400D3F81031DA68019BDB6812681A60054B6B
:1070B400D3F81031DB68019A1A60039B184605B0B7
:1070C4005DF804FB2825002000B583B00D4BD3F8F0
:1070D400103101930B4B012283F8202109E0019820
:1070E400FFF701FB0198FFF7D1FA019BDB681B68EE
:1070F4000193019B002BF2D100BF00BF03B05DF8E8
:1071040004FB00BF2825002082B00190009100BF3D
:1071140002B0704710B584B003900291039BDB88E2
:10712400002B0AD0039BDB881A461F4B009313469F
:107134001E4A1F49029801F017FE039B1B7A052B78
:107144002ED0039B5B7A002B12D0039B9B881A469C
:10715400039B1B7A19461046FFF76CFB03461A463D
:10716400144B53F822301A461349029801F0FCFDDF
:10717400039B1B6819460298FFF7C6FF039B1B7A03
:107184001A460E4B53F82240039B9B880021184655
:10719400FFF730FB034622460949029801F0E4FD5B
:1071A40000BF04B010BD00BFCC210400DC210400EA
:1071B40014220400702200202C2204005C220020EF
:1071C4003022040000B585B00390029113468DF877
:1071D4000730039B1B7A052B0FD0039B5B7A002B94
:1071E40006D00D4B1B681A460C49029801F0BCFDF1
:1071F4000B49029801F0B8FD07E09DF80730002B19
:1072040003D00749029801F0AFFD029801F08AFD0E
:1072140000BF05B05DF804FB702200202C2204009E
:107224003C22040030B58BB007900691059204937C
:107234000E9B1B7B8DF827300E9B00221A730E9930
:107244000498FFF767FF059B062B7FD801A252F82D
:1072540023F000BF757202007F7202008F72020079
:10726400A3720200C1720200E972020019730200E3
:1072740007990E9801F078FD69E0069B1B681A4691
:1072840007990E9801F070FD61E0069B1A68069B51
:1072940004331B6807990E9801F066FD57E0069BBE
:1072A4001A68069B04331968069B08331B6800930D
:1072B4000B4607990E9801F057FD48E0069B1968A4
:1072C400069B04331868069B08331B68069A0C3225
:1072D40012680192009303460A4607990E9801F03A
:1072E40043FD34E0069B1868069B04331C68069B28
:1072F40008331B68069A0C32126806991031096823
:107304000291019200932346024607990E9801F0D8
:107314002BFD1CE0069B1C68069B04331D68069B22
:1073240008331B68069A0C321268069910310968F2
:1073340006981430006803900291019200932B4642
:10734400224607990E9801F00FFD00E000BF0022CD
:107354000E990498FFF736FF0E9B9DF827201A73A9
:1073640000BF0BB030BD00BF00B587B003900291E1
:1073740001920093029B082B5CD8009B1B7B8DF829
:107384001330009B00221A7300990198FFF7C2FE84
:107394000023059314E0059A029B9A4209D2039AAA
:1073A400059B13441B781A462449009801F0DCFC21
:1073B40003E02349009801F0D7FC059B01330593B2
:1073C400059B072BE7D91F49009801F0CDFC00234A
:1073D400059322E0059A029B9A4217D2039A059BD1
:1073E40013441B788DF812309DF81230184618F0AB
:1073F400C3FE0346002B02D09DF8123000E02E237A
:107404001A461149009801F0AFFC03E00F490098B7
:1074140001F0AAFC059B01330593059B072BD9D9E1
:10742400012200990198FFF7CDFE009B9DF81320DF
:107434001A7300E000BF07B05DF804FB40220400AB
:10744400482204004C220400502204005422040068
:1074540086B003900291019201238DF817309DF8B4
:107464001730214A039B13601F4A029B53601E4A34
:10747400019B9360039B44F20102934213D0039B4C
:1074840044F20202934221D1019B174AD360164B66
:10749400DB681B881A46144B9A61134BDB685B68E4
:1074A400114AD36112E0019B0F4A13610E4B1B6911
:1074B4009B680D4A53610C4B1B691B680A4A936114
:1074C400094B1B695B68084AD36100BF72B600BFF1
:1074D40000BF9DF81730DBB2002BFAD162B600BFB3
:1074E40000BF06B0704700BF4C26002000B583B033
:1074F40002900091019244F2010071466A4600F044
:1075040003F803B000BD00BF30B58BB007900691FF
:10751400059272B600BFFFF7D7FD00BFFFF7AEFBC1
:107524000346002BFAD1079B44F2020293422FD068
:10753400079B44F20202934269D8079B44F201027A
:10754400934237D0079B44F2010293425FD8079BD2
:10755400012B05D0079B41F2010293420CD056E067
:10756400394A3A4BD31ADB081B0443F00103384968
:107574001846FFF711FB57E0334A344BD31ADB08A4
:107584001B0443F0010333491846FFF705FB4BE0A6
:10759400059B09932C4A2D4BD31ADB081B0443F09B
:1075A4000100099B5B681A46099B1B882A49FFF75F
:1075B40012FB39E0059B0893234A244BD31ADB08BA
:1075C4001B0443F00104089B9D68089B9B681846B4
:1075D40004F0B6F903461846089B5B681946089BF5
:1075E4001B68069A02920193009103462A461B499E
:1075F4002046FFF71AFB144A144BD31ADB081B046A
:1076040043F0010316491846FFF7C6FA0CE00E4A88
:107614000E4BD31ADB081B0443F00103069A1149ED
:107624001846FFF7C7FA00BF0F4B1B6803F00103AE
:10763400002B00D000BE059A06990798FFF708FFB3
:1076440000BF0BB030BD00BFE81F0400981F04004A
:1076540058220400782204009C220400B82204006A
:10766400E0220400F4220400F0ED00E082B0019076
:10767400019B03F00303002B0CBF01230023DBB2A7
:10768400184602B07047000082B003468DF80730F8
:107694009DF807309AB2064B1B889A4204D29DF893
:1076A40007300133DBB200E00023184602B0704714
:1076B4007826002000B583B00B4B1B788DF807307B
:1076C4000A4B1B78DBB21846FFF7DEFF03461A4667
:1076D4009DF8073093420CBF01230023DBB2184608
:1076E40003B05DF804FB00BF74260020752600205B
:1076F40082B0084B1B788DF80730074B1B78DBB240
:107704009DF807209A420CBF01230023DBB21846E0
:1077140002B07047742600207526002000B585B09D
:1077240003460092ADF806300B46ADF80430BDF8C0
:10773400043001339BB2DB00ADF80E300098FFF744
:1077440095FF034683F00103DBB2002B01D007232E
:1077540017E00E4A009B1360BDF80E30009A1344E4
:107764000B4A13600B4B00221A700B4B00221A7049
:107774000A4ABDF806301380094ABDF80430138064
:107784000023184605B05DF804FB00BF6C260020FA
:1077940070260020752600207426002076260020FE
:1077A4007826002000B587B003900B460192ADF80F
:1077B4000A30374B1B88BDF80A209A4260D84FF62E
:1077C400FF73ADF8123000238DF811300DF1110361
:1077D400184600F003FFFFF76DFF0346002B0ED1A0
:1077E4002C4B1B78DBB2ADF812302A4B1B78DBB282
:1077F4001846FFF749FF03461A46264B1A709DF8B0
:107804001130184600F000FFBDF812304FF6FF7239
:10781400934232D0204B1A68BDF81230DB00134477
:10782400019A1A60039B002B1CD0BDF80A30002B70
:1078340018D01A4B1B68BDF812201549098801FBA2
:1078440002F21344BDF80A200399184618F014FDF7
:10785400114B1A68BDF81230DB001344BDF80A203E
:107864009A8007E00C4B1A68BDF81230DB00134411
:1078740000229A800023059304E00423059301E089
:1078840009230593059B184607B05DF804FB00BF68
:1078940076260020752600206C2600207026002005
:1078A400002318467047000000B585B02FE0204B38
:1078B4001B78DBB2ADF80E301E4B1B68BDF80E20F2
:1078C4001D49098801FB02F2134402931B4B1A68F9
:1078D400BDF80E30DB0013449B88ADF80630174B1F
:1078E4001A68BDF80E30DB0013441B680093BDF822
:1078F4000620009B1146029898470D4B1B78DBB27B
:107904001846FFF7C1FE03461A46094B1A70FFF7E3
:10791400C7FF034683F00103DBB2002B04D0FFF75B
:10792400E7FE0346002BC2D000BF05B05DF804FBA0
:107934007426002070260020762600206C26002065
:1079440082B003468DF807309DF8073003F01F021C
:1079540005499DF907305B09012000FA02F241F85C
:10796400232000BF02B0704700E100E082B003466C
:107974008DF807309DF8073003F01F0206499DF982
:1079840007305B09012000FA02F2203341F823207A
:1079940000BF02B0704700BF00E100E082B00346C0
:1079A4008DF807309DF8073003F01F0206499DF952
:1079B40007305B09012000FA02F2403341F823202A
:1079C40000BF02B0704700BF00E100E082B0034690
:1079D4008DF807309DF8073003F01F0206499DF922
:1079E40007305B09012000FA02F2603341F82320DA
:1079F40000BF02B0704700BF00E100E082B0034660
:107A040000918DF807309DF90730002B0CDA009BAC
:107A1400DAB20C499DF8073003F00F03043B52011E
:107A2400D2B20B441A7609E0009BDAB206499DF9FA
:107A340007305201D2B20B4483F8002300BF02B0D6
:107A4400704700BF00ED00E000E100E000B585B044
:107A54000190019B002B0AD0074B43F001030393D1
:107A6400019B9B010293039B0298984700E000BF8F
:107A740005B05DF804FB00BF1023040000B583B01B
:107A84000190064A019BC2F8083507211120FFF72F
:107A9400B5FF00BF03B05DF804FB00BF0010014058
:107AA40008B50D4B4FF48032C3F844230A4B4FF40E
:107AB4008032C3F804231120FFF788FF1120FFF759
:107AC4003FFF054B01221A602F20FFF7BFFF034B36
:107AD40001221A7000BF08BD001001409A2700203F
:107AE40008B51120FFF742FF0E4B4FF48032C3F864
:107AF40048230C4B4FF48032C3F80823094B01226E
:107B04005A602F20FFF7A2FF064B01229A60064B12
:107B140000221A602F20FFF799FF044B00221A70ED
:107B240000BF08BD001001408C2700209A270020C8
:107B3400024BD3F804351846704700BF00100140CB
:107B440082B001900091019A009BD31A23F07F43E5
:107B5400184602B07047000082B00190034A019BAE
:107B6400C2F8403500BF02B0704700BF00100140AA
:107B740086B00190284B1B68002B03D1264A019B39
:107B8400136045E0019B1A68234B1B681B689A42EB
:107B940010D8214B1B681968019B1A681E4B1B687F
:107BA4008A1A1A601C4B1A68019BDA611A4A019BF3
:107BB40013602DE0019B1B680393174B1B6805930F
:107BC400154B1B68049309E0049B1B68039AD31AA2
:107BD4000393049B0593049BDB690493049B002B90
:107BE40004D0049B1B68039A9A42EDD8049B002B93
:107BF40005D0049B1A68039BD21A049B1A60019B4C
:107C0400039A1A60019B049ADA61059B019ADA616E
:107C140000BF06B0704700BF8827002000B587B0BA
:107C240001902A4B1B680393284B1B680593059B03
:107C3400049308E0049A019B9A4208D0049B05939C
:107C4400049BDB690493049B002BF3D100E000BF89
:107C5400049B002B01D1002333E0059A049B9A4234
:107C640014D11A4B1B68DB69184A1360174B1B6845
:107C7400002B0BD1164B01229A60164B00221A607E
:107C8400154B01221A702F20FFF7E0FE049B1B689E
:107C94000293049BDA69059BDA61059BDB69049313
:107CA400049B002B05D0049B1A68029B1A44049B76
:107CB4001A60064B1B68039A9A4214BF01230023DF
:107CC400DBB2184607B05DF804FB00BF882700202C
:107CD400001001408C2700209B27002008B51120AC
:107CE400FFF75CFE00BF08BD08B51420FFF756FE81
:107CF40000BF08BD00B583B00190019B5B69019A88
:107D040092691046984700BF03B05DF804FB000079
:107D140000B585B02B4B1B68002B4ED0002301937C
:107D2400FFF706FF0246284B1B6819461046FFF76B
:107D340007FF0290234B1B6803931DE0039B1B6802
:107D4400029A9A421CD3039B1B68029AD31A029389
:107D5400039B1B68019A13440193039B0093039BA9
:107D6400DB690393009B1B7C002B05D0009B002246
:107D74001A740098FFF7BEFF039B002BDED100E0CE
:107D840000BF124B1A78124B1B789A420CD1104B3D
:107D94001B780133DAB20E4B1A700D4B1B78022B91
:107DA40002D10B4B00221A70094B1B781946094A61
:107DB400019B42F82130FFF797FF00BF05B05DF843
:107DC40004FB00BF882700208C2700209827002070
:107DD400992700209027002082B00190184B1A7830
:107DE400184B1B789A4223D0154B1B780133DAB217
:107DF400134B1A70124B1B78022B02D1104B00222A
:107E04001A700F4B1B781A460F4B53F82220019B14
:107E14001A60019B1A680D4B1B6813440B4A1360CC
:107E24000A4B1B6823F07F43084A1360012303E0D5
:107E3400019B00221A600023184602B0704700BF5D
:107E44009827002099270020902700208C270020C5
:107E540088B00390029101920023079338E0204BED
:107E64001B680693069B1B68039A9A4206D2069BDC
:107E74001A68039BD21A069B1A602EE0069B1B68A5
:107E8400039AD31A0393069B1B68079A1344079318
:107E9400069B00221A60124B1B680593069BDB6944
:107EA4000F4A1360069BDB68002B11D0029A079BD4
:107EB400134423F07F42069B5A60069BDA68069BB4
:107EC4009A60019B1A68069BDA61019B059A1A6005
:107ED400034B1B68002BC2D100BF00BF08B0704722
:107EE4008827002000B589B0019000238DF81F3049
:107EF400664B1B680593AAE0019B002B05D0019BF0
:107F04000693069BDB69019361E0614B1B781A467B
:107F140013465B001344DB005D4A134404330493AB
:107F24005B4B1B780133DAB2594B1A70584B1A78F1
:107F3400574B9B789A4202D1554B00221A70049BEE
:107F44005B680693049B1B78032B1ED0032B7EDCFB
:107F5400012B1FD0022B7AD1049B5B681846FFF7D4
:107F64005DFE0346002B02D001238DF81F30069BD3
:107F740000221A746BE0454B1B680393039B002299
:107F84001A74039BDB69414A1360404B1B68002B46
:107F9400F1D15CE000BF069B1B7C002B00D056E0B7
:107FA400049B9A68069B5A60049BDA68069B9A6055
:107FB400049B1A69069BDA60049B5A69069B9A61C2
:107FC400344B1B78002B02D0069B00225A60069B80
:107FD4005A68314B1B68D31A23F07F432F4A9342CC
:107FE4000ED8069B5B682C4A126811461846FFF7A8
:107FF400A7FD0246069B9B681A44069B1A6017E07D
:10800400254B1A68069B5B6819461046FFF798FDD6
:108014000290069B9B68029A9A4206D2069B9A6833
:10802400029BD21A069B1A6002E0069B00221A6089
:10803400069B00225A60069B00229A60069B01223E
:108044001A74069B0022DA610698FFF791FD019BE2
:10805400002B7FF451AF0E4B1A780D4B5B789A428C
:108064007FF44AAF9DF81F30002B04D1074B1B68E7
:10807400059A9A4201D0012300E0002303F0010392
:10808400DBB2184609B05DF804FB00BF8827002066
:108094007C2600209B2700208C270020FEFF7F00E9
:1080A40010B588B00190254B1B68002B43D0234B9F
:1080B4001B681B680793FFF73BFD0690204B1B686A
:1080C400059305990698FFF73BFD03460333049394
:1080D4001C4B1B7883F00103DBB2002B01D0FFF7AC
:1080E400DFFC049A079B934238BF1346059A134456
:1080F4000593059B23F07F4305930598FFF72CFD1B
:10810400FFF716FD039006990398FFF719FD034640
:10811400DC1C06990598FFF713FD03469C420AD917
:10812400FFF706FD03461846FFF716FD2F20FFF75D
:108134008DFCFFF7D3FD00BF08B010BD88270020D9
:108144008C2700209A27002000B587B000230193D4
:1081540000238DF81730194B1B680493184B1B68C8
:1081640003936B461846FFF737FE03468DF80B3032
:108174009DF80B30002B08D0009B01AA04991846E7
:10818400FFF766FE01238DF81730019B1846FFF7B1
:10819400A9FE0346002B02D001238DF817309DF869
:1081A4001730002B02D00398FFF77AFF054B00220B
:1081B4001A7000BF07B05DF804FB00BF8C270020D5
:1081C400882700209B27002082B003468DF80730C3
:1081D400034A9DF80730537000BF02B0704700BFD8
:1081E4007C26002084B00190144B5B7801338DF819
:1081F4000F30124B9B789DF80F209A4202D1002336
:108204008DF80F300D4B1B789DF80F209A4201D149
:1082140000230FE0019B9DF80F201A70074B5B7839
:108224001A4613465B001344DB00044A1344043328
:108234000293029B184604B0704700BF7C260020BE
:1082440000B589B003900291019200930023079333
:1082540000238DF816300DF11603184600F0BEF910
:108264000DF117031846FFF7BDFF0690069B002B80
:1082740002D10423079318E0069B01221A70069B7F
:10828400039A5A60FFF754FC0246069B9A60069BC9
:10829400029ADA60069B019A1A61069B009A5A6157
:1082A4009DF817301846FFF78FFF9DF816301846D3
:1082B40000F0AAF9079B002B01D1FFF715FD079BDE
:1082C400184609B05DF804FB00B587B001900B4671
:1082D4008DF803300023059300238DF80E300DF143
:1082E4000E03184600F07AF90DF10F031846FFF754
:1082F40079FF0490049B002B02D1042305930BE027
:10830400049B9DF803201A70049B019A5A609DF8FF
:108314000F301846FFF758FF9DF80E30184600F04E
:1083240073F9059B002B01D1FFF7DEFC059B184672
:1083340007B05DF804FB000008B50E4B0022C3F83B
:1083440040210C4B0022C3F844210A4B0022C3F8FD
:108354004821084B0022C3F84C21064B0022C3F8E5
:108364000021044B0022C3F80421FFF7D1FC00BF15
:1083740008BD00BF0010014008B5FFF7E5FE00BFCF
:1083840008BD000008B5FFF7ABFB134B00221A70C1
:10839400114B00225A70104B0B229A700F4B002283
:1083A4001A600F4B00221A700E4B00221A70142010
:1083B400FFF70CFB07211420FFF720FB1420FFF725
:1083C400BFFA0020FFF75AFBFFF7B2FB0346064A49
:1083D40013600023184608BD7C260020882700204F
:1083E40098270020992700208C27002086B003902E
:1083F4000B4601928DF80B30134B9B78002B01D167
:1084040008231EE0019B002B01D1072319E0039BE5
:10841400002B01D1072314E0039B1B681B7C002B5A
:1084240001D008230DE0039B1B680593059B0022E4
:108434001A74059B9DF80B205A74059B019A5A6186
:108444000023184606B070477C26002000B587B08C
:10845400039002910192039B0593144B9B78002B8C
:1084640001D108231EE0039B002B01D1082319E04E
:10847400029B042B01D8072314E0059B5B69002BA6
:1084840001D108230EE0059B5B7C012B01D1029BEB
:1084940000E000230493019B049A02990598FFF7D6
:1084A400CFFE0346184607B05DF804FB7C26002087
:1084B40000B585B00190019B03930D4B9B78002B75
:1084C40001D1082310E0019B002B03D0039B5B69BF
:1084D400002B01D1082307E0039B00221A74022118
:1084E4000398FFF7F1FE0346184605B05DF804FB58
:1084F4007C26002082B0EFF310830093009B01934D
:1085040072B600BF019B184602B0704762B600BF46
:1085140000BF704700B585B00190FFF7EBFF0390F3
:10852400164B9B68002B1BD1144B01229A60144BF1
:10853400D3F88020134B1340104A1360104B114A98
:10854400C3F880200E4BD3F884300C4A53600C4B94
:108554004FF0FF32C3F88420019B00221A7002E01E
:10856400019B01221A70039B002B01D1FFF7CEFF60
:108574000023184605B05DF804FB00BF9C270020CB
:1085840000E100E0FC06FFBD00B585B003468DF8B0
:108594000730104B9B68002B16D09DF80730002B3A
:1085A40012D1FFF7A7FF03900B4A0A4B1B68136015
:1085B400094A084B5B685360064B00229A60039B90
:1085C400002B01D1FFF7A2FF0023184605B05DF888
:1085D40004FB00BF9C27002000E100E000B583B04D
:1085E400019000F02BF80346012B03D005494320EA
:1085F40000F041F80198FFF78DFF00BF03B05DF86C
:1086040004FB00BF1823040000B583B003468DF8B3
:10861400073000F013F80346012B03D0064951201C
:1086240000F029F89DF807301846FFF7ADFF00BFAA
:1086340003B05DF804FB00BF1823040084B0EFF31B
:1086440005830193019BC3F308030393039B002B4E
:108654000DD1EFF314830093009B0293029B03F06C
:108664000103002B0CBF01230023DBB200E0012334
:10867400184604B0704700B585B003460091ADF8C4
:108684000630BDF80630ADF80830009B039302AB0A
:108694001A46002144F20200FEF736FF00BF05B07F
:1086A4005DF804FB86B001900091019B53E8011F23
:1086B4008AB2D88902449889824228BF121A18893A
:1086C400824202BFBFF32F8F002307E0C2EA0102F8
:1086D40043E801200028E9D14FF001038DF80F3061
:1086E400059002910492029A009B1A609DF80F3043
:1086F400DBB2184606B0704784B00190019951E886
:10870400013FC3EA034341E80132002AF7D103924F
:10871400029300BF04B0704786B001900091019BA2
:1087240053E8021F1FFAA1F2D888824202BFBFF3A6
:108734002F8F00230DE0D88902449889824228BFF4
:10874400121AC1EA024243E802200028E8D14FF09D
:1087540001038DF80F30059002910492029A009B58
:108764001A609DF80F30DBB2184606B0704784B02B
:108774000190019951E8023FC3EA234341E80232E0
:10878400002AF7D10392029300BF04B0704700B5EA
:1087940085B001900091009B19460198FFF782FF74
:1087A4000346002B07D0019B1B68009A12881344D0
:1087B4000393039B00E00023184605B05DF804FB17
:1087C40000B583B001900091009B1A88009B5B88E0
:1087D4009A4204D10198FFF78FFF012300E00023A0
:1087E400184603B05DF804FB00B585B00190009114
:1087F400009B19460198FFF78FFF0346002B07D013
:10880400019B1B68009A528813440393039B00E066
:108814000023184605B05DF804FB00B583B0019051
:108824000091009B1A88009B5B889A4204D10198AE
:10883400FFF79DFF012300E00023184603B05DF815
:1088440004FB00B585B001900091009B5B099B007F
:10885400019A1A44009B03F01F03012101FA03F358
:108864001946104600F0D8F8039000BF05B05DF833
:1088740004FB00B583B001900091009B5B099B0051
:10888400019A1A44009B03F01F03012101FA03F328
:108894001946104600F0A8F80246009B03F01F0397
:1088A40022FA03F303F00103002B14BF0123002376
:1088B400DBB2184603B05DF804FB00B585B0019047
:1088C4000091009B5B099B00019A1A44009B03F0F2
:1088D4001F03012101FA03F3DB431946104600F09C
:1088E400B3F8039000BF05B05DF804FB82B00190BB
:1088F4000091009B5B099B00019A13441A68009B3A
:1089040003F01F0322FA03F303F00103002B14BF47
:1089140001230023DBB2184602B0704700B58BB0C8
:1089240001900091002309933BE0099B9B00019A6D
:1089340013441B68DB430693069B93FAA3F3059346
:10894400059BB3FA83F3089323E0099B5B01089A20
:1089540013440793079A009B9A421ED207990198E1
:10896400FFF787FF034683F00103DBB2002B01D03E
:10897400079B1EE0099B9B00019A13441B68DB4381
:108984000493049B93FAA3F30393039BB3FA83F333
:108994000893089B1F2BD8D900E000BF099B013323
:1089A4000993009B013B5B090133099A9A42BCD3AA
:1089B400009B18460BB05DF804FB10B487B001901F
:1089C4000091019B009A53E8004F104643E80001D0
:1089D40091F0000FF7D1059404900391059B18467C
:1089E40007B05DF8044B704710B487B00190009154
:1089F400019B009A53E8004F44EA020043E8000157
:108A040091F0000FF6D1059404900391059B18464C
:108A140007B05DF8044B704710B487B00190009123
:108A2400019B009A53E8004F44EA020043E8000126
:108A340091F0000FF6D1059404900391049B18461D
:108A440007B05DF8044B704710B487B001900091F3
:108A5400019B009A53E8004F04EA020043E8000136
:108A640091F0000FF6D1059404900391049B1846ED
:108A740007B05DF8044B704710B487B001900091C3
:108A8400019B009A53E8004F04EB020043E8000105
:108A940091F0000FF6D1059404900391059B1846BC
:108AA40007B05DF8044B704710B487B00190009193
:108AB400019B009A53E8004F04EB020043E80001D5
:108AC40091F0000FF6D1059404900391049B18468D
:108AD40007B05DF8044B704710B487B00190009163
:108AE400019B009A53E8004FA4EB020043E8000105
:108AF40091F0000FF6D1059404900391049B18465D
:108B040007B05DF8044B704700B583B001900B4685
:108B14008DF80330019B002B03D10849E820FFF7AF
:108B2400AAFD019BDA689DF803300199098A01FBCB
:108B340003F31344184603B05DF804FB70230400E8
:108B440000B583B001900091019B002B03D108492B
:108B5400F520FFF790FD009B019AD2689B1A019AB9
:108B6400128AB3FBF2F3DBB2184603B05DF804FBE0
:108B74007023040000B585B00190019B002B01D146
:108B84000E234CE0019B1B68002B03D12649FF20D8
:108B9400FFF771FD019B5B68002B04D122494FF460
:108BA4008070FFF768FD019B9B68002B04D11E4970
:108BB40040F20110FFF75FFD019BDB68002B04D13D
:108BC40019494FF48170FFF756FD019B1B8A002B56
:108BD40004D1154940F20310FFF74DFD019B9A683B
:108BE400019B5B68D31A8DF80F30019B1B68019AB7
:108BF40052681A6007E0019B1A681368591C1160D7
:108C04009DF80F201A709DF80F305A1E8DF80F2012
:108C1400002BF0D1019B1B6800221A710023184617
:108C240005B05DF804FB00BF7023040000B585B0F7
:108C34000190019B002B04D11F494FF49270FFF760
:108C44001AFD0023039300238DF80A300DF10A0363
:108C54001846FFF7C3FC019B1B681A68019B5B68FD
:108C64009A421FD9019B1B681A68013A1A601B6853
:108C74001B7819460198FFF747FF0390019B9A68F8
:108C8400019B1B681B68D31A8DF80B30019B1B6872
:108C94001B799DF80B209A4204D9019B1B689DF80F
:108CA4000B201A719DF80A301846FFF7ADFC039BA0
:108CB400184605B05DF804FB7023040010B584B0B9
:108CC40001900091019B002B04D1154940F24710FB
:108CD400FFF7D1FC009B002B04D111494FF4A47081
:108CE400FFF7C9FC009B039300238DF80B300DF1B3
:108CF4000B031846FFF772FC019B1B681C68621C7F
:108D04001A6003990198FFF71BFF034623709DF82F
:108D14000B301846FFF778FC00BF04B010BD00BF4D
:108D24007023040000B583B00190019B002B03D194
:108D34000C493120FFF79FFC019B9B68002B0CD052
:108D4400019B5B69019A1069019A1168019A926802
:108D54009847019B00229A6000E000BF03B05DF8D1
:108D640004FB00BFC42304000EB400B584B001901A
:108D7400019B002B03D118494220FFF77CFC019B87
:108D84005B69002B03D114494320FFF774FC019B5A
:108D94001B68002B03D110494420FFF76CFC019B96
:108DA4005B68002B03D10C494520FFF764FC059B4D
:108DB400002B0AD00023039306AB039303AB1A469C
:108DC4000599019800F0B0F900E000BF04B05DF827
:108DD40004EB03B0704700BFC423040000B583B0A4
:108DE40001900B468DF80330019B1A68019B9B6828
:108DF400581C0199886013449DF803201A70019B44
:108E04009A68019B5B689A4202D30198FFF78AFF34
:108E140000BF03B05DF804FB00B587B00390029176
:108E24000192009300230593009B03F00103002BA0
:108E340024D00BE0029B01330293059B013305937D
:108E44009DF8133019460398FFF7C8FF029B1B785F
:108E54008DF813309DF81330002BEBD106E0019B05
:108E6400013B019320210398FFF7B8FF019A059B6A
:108E74009A422ED9019B002BF1D12AE0029B002BB0
:108E84000BD0029817F076FA059006E0019B013B9F
:108E9400019320210398FFF7A1FF019A059B9A42B1
:108EA4000FD9019B002BF1D10BE0029B01330293FC
:108EB400059B013305939DF8133019460398FFF77A
:108EC4008DFF029B1B788DF813309DF81330002B17
:108ED400EBD100BF07B05DF804FB000000B589B01A
:108EE4000390029101920093029B0793012306933E
:108EF40007E0079A019BB2FBF3F30793069B013348
:108F04000693079A019B9A42F3D2009A069B9A42CF
:108F140001D9009B06930B9B03F00103002B22D184
:108F24000A9B002B1FD00B9B03F00203002B06D0DF
:108F3400009B002B03D130238DF8173002E020234F
:108F44008DF8173008E00A9B013B0A939DF817300F
:108F540019460398FFF742FF0A9B002B03D0069A99
:108F64000A9B9A42EFD301230793009B012B03D959
:108F7400009B013B009309E0029A079BB2FBF3F3C9
:108F84000493049A019B9A4200D205E0079B019A3C
:108F940002FB03F30793E8E7029A079BB2FBF3F3A0
:108FA4000493049B079A02FB03F3029AD31A0293D5
:108FB400154A049B13441B7819460398FFF70EFFC8
:108FC400079A019BB2FBF3F30793079B002BE3D1B2
:108FD4000B9B03F00103002B11D00A9B002B0ED036
:108FE40006E00A9B013B0A9320210398FFF7F6FE53
:108FF4000A9B002B03D0069A0A9B9A42F1D300BF26
:1090040009B05DF804FB00BF6024040000B589B01A
:109014000590049103920293049B002BB8BF5B421A
:1090240006930123079307E0039B069A92FBF3F34D
:109034000693079B01330793039B069A9A42F3DA3C
:10904400029A079B9A4201D9029B07930A9B002B21
:109054000AD0049B002B04DB0B9B03F00403002BBE
:1090640002D00A9B013B0A930B9B03F00203002BE3
:1090740002D0029B002B16D00B9B03F00103002BA4
:1090840011D10A9B002B0ED006E00A9B013B0A93E8
:1090940020210598FFF7A2FE0A9B002B03D0079A14
:1090A4000A9B9A42F1D3049B002B07DA049B5B4290
:1090B40004932D210598FFF791FE08E00B9B03F024
:1090C4000403002B03D02B210598FFF787FE0B9B8D
:1090D40003F00203002B19D00B9B03F00103002BB8
:1090E40014D1029B002B11D10A9B002B0ED006E059
:1090F4000A9B013B0A9330210598FFF76FFE0A9BF8
:10910400002B03D0079A0A9B9A42F1D304990B9B34
:1091140001930A9B0093029B039A0598FFF7DEFED6
:1091240000BF09B05DF804FB00B58FB00590049151
:109134000392059B002B04D1B6494FF49F70FFF7AF
:109144009AFA059B5B69002B04D1B2494FF4A070D5
:10915400FFF791FA059B1B68002B04D1AD4940F23F
:109164004110FFF788FA059B5B68002B04D1A949DD
:109174004FF4A170FFF77FFA049B002B00F093815A
:10918400049B1B788DF83730049B013304939DF8BE
:109194003730002B00F07E819DF83730252B40F0CE
:1091A4006D8100230A9301230C93049B1B788DF893
:1091B40037309DF83730302B0DD0302B1BDC2B2B68
:1091C40011D02D2B17D10A9B43F001030A93049B62
:1091D4000133049312E00A9B43F002030A93049BB5
:1091E400013304930AE00A9B43F004030A93049BAB
:1091F4000133049302E000230C9300BF0C9B002B6B
:10920400D3D1002309939DF837302A2B0CD1039B2B
:109214001B68191D039A11601B68099A134409936A
:10922400049B013304931AE0049B1B788DF83730B8
:109234009DF837302F2B12D99DF83730392B0ED8A3
:10924400049B01330493099A13469B0013445B0067
:109254001A469DF837301344303B0993D3E7002373
:109264000B93049B1B788DF837309DF837302E2BE9
:109274001DD1049B01330493049B1B788DF8373074
:109284009DF837302F2B12D99DF83730392B0ED853
:10929400049B013304930B9A13469B0013445B0015
:1092A4001A469DF837301344303B0B93E4E7049B94
:1092B4001B788DF837309DF837306C2B03D09DF830
:1092C4003730682B07D1049B01330493049B1B782C
:1092D4008DF83730EFE79DF83730252B00F0C48048
:1092E400252BC0F2C680782B00F3C380582BC0F224
:1092F400C080583B202B00F2BC8001A252F823F01E
:10930400F3930200779402007794020077940200AA
:109314007794020077940200779402007794020015
:1093240077940200779402007794020089930200F4
:10933400AB930200779402007794020077940200C2
:1093440077940200AB9302007794020077940200B2
:1093540077940200779402007794020077940200D5
:109364003994020077940200779402001D9402005D
:1093740077940200CF93020077940200779402005E
:10938400F3930200039B1B68191D039A11601B6869
:109394000C930C9B8DF81F309DF81F3019460598CF
:1093A400FFF71CFD66E0039B1B68191D039A1160FF
:1093B4001B680C930A9B0193099B00930B9B0A2245
:1093C4000C990598FFF722FE54E0039B1B68191DB6
:1093D400039A11601B680C930C990A9B0193099BD7
:1093E40000930B9B0A220598FFF778FD42E0039B4C
:1093F4001B68191D039A11601B680C930C990A9B36
:109404000193099B00930B9B10220598FFF766FDBF
:1094140030E000BF10240400039B1B68191D039A4D
:1094240011601B6808930A9B099A08990598FFF72D
:10943400F3FC1FE0039B1B68191D039A11601B6852
:109444000C9330210598FFF7C9FC78210598FFF7A4
:10945400C5FC0C99002301930823009308231022D0
:109464000598FFF73BFD05E025210598FFF7B6FCBD
:1094740000E000BF049B0133049305E09DF83730FE
:1094840019460598FFF7AAFC049B1B78002B7FF470
:1094940077AE00E000BF059B1B7B002B04D0059832
:1094A400FFF740FC00E000BF0FB05DF804FB00BF15
:1094B40010B586B00590049103920293059B002B8E
:1094C40010D1604A604BD31ADB081B0443F001003F
:1094D4005E4A5F490E2300930B465E49FDF78FFBFE
:1094E4000E23ABE0039B002B10D1564A564BD31AE4
:1094F400DB081B0443F00100574A55490E2300932F
:109504000B465449FDF77BFB0E2397E0059B1B6834
:10951400002B10D14B4A4C4BD31ADB081B0443F0ED
:1095240001004E4A4A49082300930B464949FDF776
:1095340066FB082382E0029B002B10D1414A424B78
:10954400D31ADB081B0443F00100454A40490923B0
:1095540000930B463F49FDF752FB09236EE0059B40
:109564005B685A68029BB3FBF2F102FB01F29B1A9F
:10957400002B10D0334A344BD31ADB081B0443F0BE
:109584000100384A3249092300930B463149FDF75B
:1095940036FB092352E0049800F01EF90346002B21
:1095A40010D1284A284BD31ADB081B0443F00100CE
:1095B4002D4A2749102300930B462649FDF71FFB2C
:1095C40010233BE0039B184600F006F90346002BEA
:1095D40010D11C4A1C4BD31ADB081B0443F00100B6
:1095E400224A1B49102300930B461A49FDF707FB37
:1095F400102323E0029A0499059800F0D3F8034657
:10960400002B10D10F4A104BD31ADB081B0443F074
:109614000100174A0E49102300930B460D49FDF72C
:10962400EEFA10230AE0059B1B68DC68089B009394
:10963400029B039A04990598A0470346184606B06E
:1096440010BD00BF08200400981F040080240400FB
:10965400242604008824040014250400BC240400E7
:10966400D02404001C2504004825040060250400BF
:109674008425040010B586B00590049103920293EA
:10968400059B002B10D13E4A3E4BD31ADB081B042A
:1096940043F001003C4A3D490E2300930B463C49EC
:1096A400FDF7ADFA0E2368E0059B1B68002B10D173
:1096B400334A344BD31ADB081B0443F00100354A08
:1096C4003249082300930B463149FDF798FA0823E1
:1096D40053E0039B002B10D1294A2A4BD31ADB08F1
:1096E4001B0443F001002C4A2849092300930B462C
:1096F4002749FDF784FA09233FE00499059800F00F
:1097040078F80346002B10D11D4A1E4BD31ADB08F0
:109714001B0443F00100214A1C49102300930B460B
:109724001B49FDF76CFA102327E0059B5B681B6857
:10973400039A02FB03F31A460499059800F032F8E1
:109744000346002B10D10E4A0E4BD31ADB081B0420
:1097540043F00100124A0D49102300930B460C49B3
:10976400FDF74DFA102308E0059B1B681C69029B5A
:10977400039A04990598A0470346184606B010BDFD
:1097840008200400981F04008024040038260400E4
:1097940088240400BC240400D0240400AC25040064
:1097A400D425040084B0039002910192039BDB68EA
:1097B400029A9A4209D3029A019B13445A1E039BAC
:1097C4001B699A4201D8012300E0002303F001033E
:1097D400DBB2184604B0704782B00190019B03F0DD
:1097E4000303002B0CBF01230023DBB2184602B095
:1097F400704782B001900091019B5B681B685A1E00
:10980400009B1340002B0CBF01230023DBB218463E
:1098140002B0704729DF704700BF184628DF704741
:1098240000BF184600B589B001900091019B1B68E8
:109834009B68002B35D002AB00221A605A609A60F4
:10984400DA601A615A61009B0393019B9B6807933A
:10985400019B1B79002B02D0012B0DD01AE00123B0
:109864008DF80830019B1B690493019BDB68059309
:10987400019B5B6906930DE002238DF80830019B80
:10988400DB684FF4805202FB03F30493019B5B6992
:10989400069300BF019B1B689B6802AA1046984769
:1098A40000E000BF09B05DF804FB00B587B001908B
:1098B400019B5A69019B9B69D31AB3F5805F28BF4A
:1098C4004FF4805305930422059BB3FBF2F3012B61
:1098D40038BF01230593019B1A69019B9B691344BB
:1098E4000493019BDB681A46019B9B691344039311
:1098F400059A03990498FFF78DFF0346184607B0AD
:109904005DF804FB00B583B00190019BDA68019B0C
:109914001B6913441846FFF781FF0346184603B03A
:109924005DF804FB08B5034B03491846FEF775FFC1
:1099340000BF08BDA8270020D027002008B5084B89
:1099440008491846FEF750FF0346074A1360064BC2
:109954001B68002B14BF01230023DBB2184608BD8B
:10996400A8270020D0270020CC27002000B583B0F2
:109974002A4B1B7A002B0BD1FFF7E0FF034683F041
:109984000103DBB2002B03D0244B00225A6042E0D7
:10999400224B02221A72224B1B681B79002B02D025
:1099A400012B07D00DE01E4B1B681846FFF77DFF07
:1099B400019009E01A4B1B681846FFF7A3FF0190BA
:1099C40002E00323019300BF019B002B03D0019B02
:1099D400112B0CD00FE0114B1B7C83F00103DBB285
:1099E400002B17D00021022000F06EF812E00B4B80
:1099F40001221A720FE00A4B1B6803211846FFF775
:109A040011FF064B00221A72044B00225A60FFF722
:109A140089FF00E000BF03B05DF804FBB827002015
:109A2400CC27002084B001901B4B0022DA60019BFC
:109A34001B79002B02D0012B19D028E0019B5A6915
:109A4400019B9B69D31AB3F5805F28BF4FF4805301
:109A54000393019B9A69039B1A44019B9A61019B9E
:109A64009A69019B5B699A420ED1012310E0019B24
:109A74001B695A1C019B1A61019B1A69019B5B6952
:109A84009A4203D1012303E000BF00E000BF00239A
:109A9400184604B0704700BFB827002082B0019078
:109AA400084BDB680133074AD360064BDB68082B9D
:109AB40004D9044B0022DA60012300E00023184695
:109AC40002B07047B827002000B585B0019000911E
:109AD400019B022B02D0019B032B48D1274B1B7AFD
:109AE400022B05D0022B35DC002B42D0012B31E0B8
:109AF40000238DF80F30019B022B03D0019B032B15
:109B040009D011E01E4B1B681846FFF78BFF034674
:109B14008DF80F3008E01A4B1B681846FFF7BEFF9C
:109B240003468DF80F3000BF9DF80F30002B10D086
:109B3400124B00221A72124B1A68019B022B01D19C
:109B4400002300E00D2319461046FFF76BFEFFF7D4
:109B5400E9FE00BF094B5B7C83F00103DBB2002B01
:109B640002D0FFF703FF05E00FF09AFB02E000BF0D
:109B740000E000BF05B05DF804FB00BFB82700207B
:109B8400CC27002082B0034600918DF80730064BA5
:109B940001225A74044B1B7A002B0CBF01230023AF
:109BA400DBB2184602B07047B827002000B583B076
:109BB400034600918DF807309DF80730012B03D040
:109BC4009DF80730032B0DD1084B00225A749DF8E1
:109BD4000730012B0CBF01230023DAB2034B1A74A4
:109BE400FFF7C4FE00BF03B05DF804FBB8270020F4
:109BF40000B583B001900198FEF7BCFF03461846F8
:109C040003B05DF804FB00B58BB001900091019B9B
:109C14001B8A043B0793009A079B1344DA1C079B97
:109C2400B2FBF3F38DF81B300198FEF7FFFF0590AC
:109C3400059B002B01D1002338E0059B00221A71FB
:109C4400059B01225A71079B9AB2059BDA80059BFA
:109C540009939DF81B30013B0493099B019A1A60F8
:109C6400002308931DE00198FEF7E0FF0390039B97
:109C7400002B0ED0059B5B790133DAB2059B5A7138
:109C8400099B039A1A60039B019A1A60039B099328
:109C940004E0059800F00EF8002307E0089B013368
:109CA4000893089A049B9A42DDD3059B18460BB08F
:109CB4005DF804FB00B58BB00190019B0793079BF3
:109CC4005B798DF81B30019B08939DF81B30013B99
:109CD40005930023099305E0089B1B680893099BDF
:109CE40001330993099A059B9A42F5D3089B1B6893
:109CF4000493019B0893002309930BE0089B1B68C2
:109D0400039308990498FEF7D9FF039B0893099BD2
:109D1400013309939DF81B30099A9A42EED300BF90
:109D240000BF0BB05DF804FB00B585B00190019B4A
:109D34000393039B043301211846FEF7B5FE00BFCD
:109D440005B05DF804FB00B587B00190019B059355
:109D5400059B043301211846FEF7BEFE0346039318
:109D640003AB0493049B1B78002B02D10198FFF7EB
:109D7400A1FF00BF07B05DF804FB000000B591B07F
:109D84000390029101920093039B002B03D143495A
:109D9400B620FEF770FC039B0993039B0F93099B6A
:109DA400DB881A46099B5B7903FB02F3043B0893A7
:109DB400009A089B9A4203D33849C420FEF75BFCFF
:109DC400099BDB880793009B1A1D079BB2FBF3F3E7
:109DD4000E93009B0433079AB3FBF2F2079901FB3D
:109DE40002F29B1A0D93019B1A68009B1344089A74
:109DF4009A4203D2089A009BD31A01E0019B1B6884
:109E04000C93019B0C9A1A6005E00F9B1B680F933F
:109E14000E9B013B0E930E9B002BF6D100230B935C
:109E2400079A0D9BD31A0A930A9A0C9B934228BF54
:109E340013460A932AE0029A0B9B134406930F9A43
:109E44000D9B1344043305939DF84830002B05D033
:109E54000A9A0599069816F00FFA04E00A9A0699E8
:109E6400059816F009FA00230D930F9B1B680F93B6
:109E74000C9A0A9BD31A0C930B9A0A9B13440B93C8
:109E8400079A0C9B934228BF13460A930C9B002B02
:109E9400D1D100BF00BF11B05DF804FB4C26040013
:109EA40000B589B00590049103920293039B079334
:109EB40007AA00230093029B04990598FFF75EFF0D
:109EC400079B039A9A4203D00349F620FEF7D3FB7B
:109ED40000BF09B05DF804FB4C26040000B589B04E
:109EE4000590049103920293039B079307AA01230D
:109EF4000093029B04990598FFF740FF079B039A80
:109F04009A4204D004494FF48070FEF7B4FB00BFBA
:109F140009B05DF804FB00BF4C26040082B0034680
:109F24008DF807309DF8073003F01F0206499DF9AC
:109F340007305B09012000FA02F2603341F8232064
:109F440000BF02B0704700BF00E100E0BFF34F8FD5
:109F540000BF074BDB6803F4E0620549054B13437C
:109F6400CB60BFF34F8F00BF00BF00BFFCE700BF53
:109F740000ED00E00400FA0500B583B00190019BF8
:109F8400002B03D10449C420FEF775FB019B5B68D9
:109F9400184603B05DF804FBA026040000B583B0A6
:109FA4000190019B002B03D106497220FEF763FB4D
:109FB400019B00221A60BFF35F8F00BF00BF03B094
:109FC4005DF804FB0827040000B585B00190019BEF
:109FD400002B03D10A498520FEF74DFB012101988E
:109FE400FEF7EBFC0390BFF35F8F00BF039B002BD6
:109FF4000CBF01230023DBB2184605B05DF804FB57
:10A004000827040000B583B00190019B002B03D105
:10A014000A499220FEF72FFB019B1B68012B03D0FA
:10A0240006499320FEF727FBBFF35F8F00BF019B18
:10A0340000221A6000BF03B05DF804FB0827040087
:10A0440033DF704700BF184641DF704700BF184632
:10A054004FF080430122C3F80025BFF34F8F00BFA8
:10A0640020BF00BFFCE7000000B585B000238DF8D9
:10A0740003300DF103031846FEF7B0FAF1EE103A7F
:10A084000193019B0393039B23F09F030293029B81
:10A09400E1EE103A00BFBFF35F8F00BF2620FFF749
:10A0A4003DFF9DF803301846FEF7AEFA039B03F01C
:10A0B4000703002B03D004497D20FEF7DCFA00BF20
:10A0C40005B05DF804FB00BF6027040008B5064B2B
:10A0D40000221A700548FFF761FF0549054800F0A2
:10A0E400B7F80023184608BDDC270020D827002035
:10A0F400B8270400E027002000B583B0FFF7B4FFC1
:10A104000FF0EAF80346002B0ED0FFF79DFF0190F5
:10A11400019B002B0ED0019B022B0BD007494FF45F
:10A12400B070FEF7A8FA05E020BF00BF40BF00BF33
:10A1340020BF00BF00BF03B05DF804FB602704002C
:10A1440000B583B00FE02148FFF716FF0190019B93
:10A154001B681F4A1278104698470346002B31D0DB
:10A164001A4800F09FF81948FFF706FF0346002B32
:10A17400E9D1FCF7A9FF00BFFCF780FD0346002BE3
:10A18400FAD1134B1B78032B03D0114B1B78022BF2
:10A1940002D1FFF7DBFE16E00FF09EF80346002B1A
:10A1A4000DD0FFF74DFF0090009B002B07D0009BC4
:10A1B400022B04D007494FF4D170FEF75CFAFFF785
:10A1C40047FF00E000BF03B05DF804FBE027002078
:10A1D400D42700206027040000B583B003468DF81F
:10A1E40007301748FFF7F0FE034683F00103DBB2A4
:10A1F400002B21D19DF80730042B0ED0114B1B7876
:10A20400002B03D00E48FFF7FDFE16E00E4A9DF822
:10A21400073013700B4B01221A700A4B1B78002B6A
:10A2240004D10A4940F2CB10FEF725FAFFF788FF64
:10A234000348FFF7E7FE00E000BF03B05DF804FB4E
:10A24400D8270020DC270020D42700206027040022
:10A2540000B583B001900091019B002B03D11049FC
:10A264005020FEF708FA009B002B03D10C49512023
:10A27400FEF701FA019B009A1A60019B1B681A6899
:10A28400019B5A60019B5A68019B1B685B689A4258
:10A2940002D1019B00225A6000BF03B05DF804FBA9
:10A2A400C427040000B583B00190019B002B03D1A7
:10A2B40014496320FEF7DFF9019B1B68002B03D1CF
:10A2C40010496420FEF7D7F9019B5B68002B14D07A
:10A2D400019B5B681A46019B1B689B6813441A46E2
:10A2E400019B5A60019B5A68019B1B685B689A42F8
:10A2F40004D1019B00225A6000E000BF03B05DF866
:10A3040004FB00BFC427040082B00190019B03F04A
:10A314000303002B0CBF01230023DBB2184602B059
:10A324007047000000B585B00190002303930EE050
:10A334000B4A039B52F82330002B05D0084A039B99
:10A3440052F8233001989847039B01330393039BEE
:10A35400032BEDD900BF00BF05B05DF804FB00BFBF
:10A36400F427002082B001900091019B1B78013BEF
:10A37400052B61D801A252F823F000BF99A3020073
:10A38400A1A30200C7A30200F9A3020019A40200BA
:10A3940035A40200009B00221A704EE0009B0122AB
:10A3A4001A70019B1A89009B9A81019B9A88009BD1
:10A3B400DA81019BDA68009B9A60009B00221A7480
:10A3C4003BE0009B02221A70019B1A89009B9A8130
:10A3D400019B9A88009BDA81019BDA68009B9A6052
:10A3E400019B9B7D062B0CBF01230023DAB2009B4B
:10A3F4001A7422E0009B03221A70019BDA88009BE6
:10A404009A81019B1A89009BDA81019BDA68009B7F
:10A414009A6012E0009B04221A70019BDA88009B68
:10A424009A81009B0022DA81009B00229A6004E05A
:10A43400009B05221A7000E000BF00BF02B0704705
:10A4440084B001900091019B0393039A009B9A426C
:10A4540006D2039B1B68B3F1FF3F01D0012300E048
:10A46400002303F00103DBB2184604B0704782B046
:10A474000190019B5B8803339B00019A13441846A7
:10A4840002B0704700B583B0019000910198FFF7C6
:10A49400EEFF0246009B934201D202230CE0019B93
:10A4A4009B884FF6FF72934203D0019B1B88002BBD
:10A4B40001D1012300E00023184603B05DF804FB3A
:10A4C40000B583B00190019B002B13D00D4BDB68CA
:10A4D4001A46019B93420DD30A4B1B691A46019BF2
:10A4E400934207D80198FFF70FFF0346002B01D0D2
:10A4F400012300E0002303F00103DBB2184603B09C
:10A504005DF804FB4022002082B003460A46ADF801
:10A5140006301346ADF80430BDF80620134913463F
:10A524009B0013449B000B4408331A88BDF8043085
:10A534001344ADF80430BDF806200C4913469B00C3
:10A5440013449B000B440A331A88BDF804301344A7
:10A55400ADF80430BDF8043040F2FF32934294BFAA
:10A5640001230023DBB2184602B0704718280020EC
:10A5740084B0019000910A2303930023ADF80A30BC
:10A5840027E0BDF80A20174913469B0013449B009B
:10A594000B4404331B68009A9A4215D9BDF80A206B
:10A5A400104913469B0013449B000B4404331B685F
:10A5B40003F58053009A9A4206D200230393019B29
:10A5C400BDF80A201A8008E0BDF80A300133ADF85E
:10A5D4000A30BDF80A30012BD3D9039B184604B0C6
:10A5E400704700BF1828002082B001900091009BA2
:10A5F4009B7D022B09D9019B1A89009BDB8813449C
:10A604009BB203339AB2019B1A81019B5A89009B26
:10A61400DB88D31A9BB2033B9AB2019B5A8100BFD9
:10A6240002B0704700B583B0074B1B68194600237E
:10A6340000930823054A0648FEF73AFF03461846E6
:10A6440003B05DF804FB00BF402800207C28040010
:10A654004022002000B585B00390039900230093A5
:10A664000823044A0448FEF723FF0346184605B0AE
:10A674005DF804FB842804004022002000B585B066
:10A6840003460091ADF8063000238DF80F30BDF875
:10A6940006300333ADF80A30BDF80A3040F2FD321B
:10A6A400934201D909234AE00023ADF80C303BE082
:10A6B400BDF80C20244913469B0013449B000B4413
:10A6C4001B78002B2BD1BDF80A20BDF80C301146A5
:10A6D4001846FFF719FF0346002B20D001238DF8FD
:10A6E4000F30009BBDF80C201A80BDF80C201649D1
:10A6F40013469B0013449B000B440A331988BDF88E
:10A704000C20BDF80A300B4498B20F4913469B0045
:10A7140013449B000B440A3302461A8008E0BDF838
:10A724000C300133ADF80C30BDF80C30012BBFD91F
:10A734009DF80F30002B01D0002300E007231846BA
:10A7440005B05DF804FB00BF1828002082B0034662
:10A754000A46ADF806301346ADF80430BDF80420BF
:10A764000D4913469B0013449B000B440A331A887B
:10A77400BDF80630D31A9BB2BDF80420033B98B24F
:10A78400054913469B0013449B000B440A330246BD
:10A794001A8000BF02B070471828002008B50121B4
:10A7A4000248FEF781F90346184608BD0428002034
:10A7B40000B585B003460091ADF80630BDF806201B
:10A7C400244913469B0013449B000B4404331B6829
:10A7D40003F580530293009B1B680393039B002B98
:10A7E40004D00398FFF743FE039026E0BDF806204B
:10A7F400184913469B0013449B000B4404331B6805
:10A804000833039319E002990398FFF73BFE0346CC
:10A81400022B10D0022B10DC002B02D0012B05D010
:10A824000BE0009B039A1A6001230EE00398FFF7E4
:10A834001EFE039001E0002307E002990398FFF74E
:10A84400FFFD0346002BDED10023184605B05DF85A
:10A8540004FB00BF1828002000B585B001900091CA
:10A86400019B5B681846FFF72BFE0346002B19D0AB
:10A87400019B1A89244B1B899A4213D1019B1A68A4
:10A88400019B5B689B689A420CD1019B5B681946EB
:10A894000098FFF76DFE0346002B0CBF0123002335
:10A8A400DBB22CE0009B00221A8023E000230293F9
:10A8B40010E0029B0393039B9A68019B1B689A42D6
:10A8C40008D1029A019B5A600F4B1A89019B1A8185
:10A8D400012314E0009B1B8802AA11461846FFF7C7
:10A8E40067FF0346002BE4D1009B1B8801339AB217
:10A8F400009B1A80009B1B88012BD7D90023184684
:10A9040005B05DF804FB00BF4828002000B587B0FF
:10A914000390029101920093304B1B78DBB283F0D9
:10A924000103DBB2002B01D0022353E0019B002B77
:10A9340002D0009B002B48D105234BE0009B9B8851
:10A944001946274A0B469B000B449B0013441B7873
:10A95400002B33D124E0009B1B680593039B002B41
:10A9640006D0059B9A88039B1B889A4200D017E067
:10A97400029B002B06D0059B1A88029B1B889A42D7
:10A9840000D00DE0059B9A68019B1A60009B1A6831
:10A99400019B5A60134B1A89019B1A81002319E009
:10A9A400009B9B88009A11461846FFF701FF034657
:10A9B400002BD0D1009B00221A6000E000BF009B56
:10A9C4009B8801339AB2009B9A80009B9B88012B41
:10A9D400B4D90A23184607B05DF804FBE827002021
:10A9E400182800204828002000B585B00190084BA5
:10A9F40001991846FDF7CBFE03901C220021039811
:10AA040015F063FC039B184605B05DF804FB00BF1A
:10AA14000828002000B583B00190044B0199184622
:10AA2400FDF7CEFE00BF03B05DF804FB082800204C
:10AA340000B583B00190054B01991846FDF7D4FE8B
:10AA44000346184603B05DF804FB00BF0828002045
:10AA540000B583B00190044B01991846FDF7DDFE63
:10AA640000BF03B05DF804FB0828002008B50A4BBA
:10AA74001B68002B04D1094940F27A20FDF7FBFD45
:10AA840001210548FEF728F80346002B14BF0123D3
:10AA94000023DBB2184608BDF0270020302804004C
:10AAA40000B587B003900291039B02229A75029924
:10AAB400039B1A1D0023009304230748FEF7F8FCA8
:10AAC4000590059B002B01D1002300E00E231846BE
:10AAD40007B05DF804FB00BF4022002000B587B03A
:10AAE40003900291039B1B69002B01D0032200E019
:10AAF4000122039B9A75029B08331946039B03F1B9
:10AB04000C020023009304230648FEF7D1FC0590B1
:10AB1400059B002B01D1002300E00E23184607B04B
:10AB24005DF804FB4022002000B587B00390029139
:10AB3400039B1B78032B01D1052200E00622039B13
:10AB44009A75029B04331946039B03F10802002300
:10AB5400009304230648FEF7ABFC0590059B002BED
:10AB640001D1002300E00E23184607B05DF804FB72
:10AB74004022002000B587B003900B46ADF80A30A0
:10AB840003990023009304230C4A0D48FEF790FC1C
:10AB94000590059B002B01D00E230BE0BDF80A2085
:10ABA400084913469B0013449B000B4410330122B5
:10ABB4001A700023184607B05DF804FB8C280400C3
:10ABC400402200201828002000B589B0019002AB73
:10ABD40000221A605A609A60019BDB6802930DF1AF
:10ABE400160202AB11461846FFF736FE0346002B49
:10ABF40012D0039B0693069B9A88019BDA80069BDE
:10AC04001A88019B1A81039BBDF816201146184629
:10AC1400FFF7B0FF079001E00A230793079B18464C
:10AC240009B05DF804FB000000B587B00190019BFA
:10AC3400981D02AA0D4B0021FFF768FE0590059BA5
:10AC4400002B08D1039B094A928811461846FFF746
:10AC540091FF059004E008220021044815F035FB1B
:10AC6400059B184607B05DF804FB00BF5828002078
:10AC740000B587B003900291039B01229A75029B51
:10AC84000C331846039B1A69039BDB889B00002145
:10AC9400009101460648FEF70BFC0590059B002B2E
:10ACA40001D1002300E00E23184607B05DF804FB31
:10ACB4004022002082B0184B1B8901339AB2164BF4
:10ACC4001A81154B00225A80134B00221A73002359
:10ACD400ADF8063018E0BDF80620104913469B0075
:10ACE40013449B000B441A78BDF80630002A0CBFAD
:10ACF40001220022D1B2084A13440A469A72BDF8CE
:10AD040006300133ADF80630BDF80630012BE2D928
:10AD140000BF00BF02B07047482800201828002058
:10AD240084B0019000238DF80F300023ADF80C306F
:10AD340031E0BDF80C301C4A13449B7A002B25D01B
:10AD4400BDF80C30184A134400229A72BDF80C2046
:10AD5400164913469B0013449B000B440C331B6899
:10AD6400002B13D1BDF80C20104913469B0013444B
:10AD74009B000B4410331B78002B07D0019BBDF8BC
:10AD84000C201A8001238DF80F3008E0BDF80C3038
:10AD94000133ADF80C30BDF80C30012BC9D99DF846
:10ADA4000F30184604B070474828002018280020A7
:10ADB40008B5084B05221A70074B02229A80064BED
:10ADC4001B681946002301220448FEF753FC03467E
:10ADD400184608BD482800204028002040220020B2
:10ADE40000B583B0164B5B88ADF80230BDF8022085
:10ADF400144913469B0013449B000B440C331B68FB
:10AE0400002B14D10E4B04221A70BDF802200D49F8
:10AE140013469B0013449B000B4404331B681946E0
:10AE2400002301220848FEF725FC019002E0FFF709
:10AE3400BFFF0190019B184603B05DF804FB00BFFF
:10AE440048280020182800204022002000B587B0A0
:10AE5400104B5B680593104B1A680F4B9B889B0043
:10AE640013440493059B5B880333ADF80E30094B00
:10AE740003221A700499074B5A68BDF80E309B00E0
:10AE8400002000900548FEF713FB0346184607B060
:10AE94005DF804FB482800204028002040220020C0
:10AEA40000B583B00A4B5B880A491846FFF780FC5B
:10AEB4000346002B03D0FFF7C9FF019002E0FFF720
:10AEC4008FFF0190019B184603B05DF804FB00BF9F
:10AED400482800204C28002008B50A4B06221A7086
:10AEE400084B5B881946084A0B469B000B449B00A1
:10AEF400134404331B681846FFF7ACFB034618469B
:10AF040008BD00BF482800201828002008B5054BBC
:10AF140007221A70034B00225A60FFF783FB034693
:10AF2400184608BD4828002008B50D48FFF7F8FE6C
:10AF3400034683F00103DBB2002B0BD0094B002244
:10AF44001A70084B00225A80064B00225A6041F6C0
:10AF54001D5302E0FFF7A4FF0346184608BD00BFD7
:10AF64004A2800204828002082B0094B5B680193DE
:10AF7400019B5B880333ADF80230064B9A88BDF819
:10AF8400023013449AB2034B9A8000BF02B0704758
:10AF9400482800204028002082B0184B1B680193E9
:10AFA400174B5B881946174A0B469B000B449B00C2
:10AFB400134404331B68114A1360114B5B88194610
:10AFC400104A0B469B000B449B0013440433019A24
:10AFD4001A600B4B5B881946084B9888094A0B4644
:10AFE4009B000B449B001344083302461A80034B16
:10AFF40002229A8000BF02B0704700BF40280020A0
:10B00400482800201828002008B51A4B1B78072B65
:10B014002CD801A252F823F03DB0020071B0020016
:10B0240071B0020049B0020055B0020061B00200E4
:10B0340061B0020069B00200FFF73CFE0D4B012233
:10B044001A7014E0FFF790FF0A4B02221A700EE008
:10B05400FFF7A2FF074B06221A7008E0054B0722F0
:10B064001A7004E0034B01221A7000E000BF00BF15
:10B0740008BD00BF4828002000B587B001900091AA
:10B084000F230593019B002B04D0624B00225A60CE
:10B094000123BBE0009B1B79032B00F2AB8001A2D0
:10B0A40052F823F0B9B00200C7B0020055B1020053
:10B0B40075B10200009B01221A71FFF7B3FA0590E3
:10B0C4009BE000238DF813300023ADF810302BE003
:10B0D400BDF81020504913469B0013449B000B44B9
:10B0E4001B78022B1BD1BDF810204B4913469B0043
:10B0F40013449B000B4400221A7001238DF8133073
:10B10400BDF81020444913469B0013449B000B4494
:10B1140004331B681846FFF79DFA059008E0BDF854
:10B1240010300133ADF81030BDF81030012BCFD9F9
:10B134009DF8133083F00103DBB2002B5CD0354B58
:10B1440001221A70334B00225A6041F61D535DE010
:10B15400009B00221A71314B02229A802F4B1B68EC
:10B164001946002301222E48FEF784FA059044E094
:10B17400009B00221A71294B1B681846FFF76AFAD4
:10B184000590284B5B88ADF80E30244B1B68029366
:10B19400BDF80E20204913469B0013449B000B442A
:10B1A40004331B681D4A1360BDF80E201A49134668
:10B1B4009B0013449B000B440433029A1A60BDF8AD
:10B1C4000E20164B9888144913469B0013449B0089
:10B1D4000B44083302461A80104B02229A80BDF8B1
:10B1E4000E200D4913469B0013449B000B44002280
:10B1F4001A7002E000BF00E000BF059B002B04D0E2
:10B20400044B00225A600E2300E00023184607B0C6
:10B214005DF804FBE82700201828002040280020BF
:10B22400402200204828002000B587B001900091FA
:10B23400009B9B8A1A4613469B0013449B003A4A80
:10B2440013440493019B002B05D000990498FFF745
:10B25400CBF9012363E0049B5A68049B1B899B0080
:10B2640013440393009B9B7D062B4DD801A252F8F7
:10B2740023F000BFBBB20200DFB20200C7B202007B
:10B28400D3B2020095B20200EBB2020005B3020091
:10B29400264B00225A60009B9B69244A1360244970
:10B2A4002248FFF7D9FA034683F00103DBB2002BEF
:10B2B40001D00A2333E003990098FFF7F1FB0590CE
:10B2C40025E003990098FFF709FC05901FE0039916
:10B2D4000098FFF7CDFC059019E003990098FFF75B
:10B2E40023FC059013E0009B06229A750F4B5B68C4
:10B2F4000F4A128811461846FFF73CFC059006E0F9
:10B3040041F61D53059302E00F23059300BF059BEF
:10B31400002B03D000990498FFF766F9059B1846A3
:10B3240007B05DF804FB00BF182800206028002047
:10B334006C28002000B585B001900091019B002B82
:10B3440001D0012326E0009B1B79022B19D0022B8C
:10B354001BDC002B02D0012B08D016E0009B02223C
:10B364001A710098FFF730FC039012E00098FFF781
:10B374005BFC0390039B0A2B0AD141F61D530393F4
:10B3840006E041F61D53039303E00F23039300E00B
:10B3940000BF039B184605B05DF804FB00B585B0FB
:10B3A4000190019B002B01D001233BE01F4B1B7B31
:10B3B400002B03D01D4B00221A7301E0FFF724FE7B
:10B3C4001A4B1B78013B062B28D801A252F823F014
:10B3D400F1B30200F9B3020001B4020009B402009F
:10B3E40021B4020011B4020019B40200FFF79CFD5D
:10B3F400039016E0FFF754FD039012E0FFF726FDDB
:10B4040003900EE0FFF7ECFC03900AE0FFF764FD05
:10B41400039006E0FFF77AFD039002E00F23039305
:10B4240000BF039B184605B05DF804FB48280020C4
:10B4340000B589B001903F4B1B68002B05D13E48F5
:10B44400FFF7F6FA03463B4A13603A4B1B68002B9E
:10B4540004D13A4940F28250FDF70DF9354B1B688F
:10B464001B78013B052B2CD801A252F823F000BF16
:10B474008DB402009DB402009DB40200ADB402007C
:10B48400ADB40200BDB402002A4B1B6819460198F2
:10B49400FFF7F2FD019017E0264B1B68194601984F
:10B4A400FFF7C2FE01900FE0224B1B68194601987A
:10B4B400FFF740FF019007E00198FFF76FFF01904D
:10B4C40002E00F23019300BF019B002B2BD003ABA1
:10B4D40000221A605A609A60DA601A61019B41F690
:10B4E4001D52934201D0019B00E000230493114BB1
:10B4F4001B6803AA11461846FEF734FF03AB18462F
:10B50400FEF710FF0B4B00221A60002301930A4838
:10B51400FFF79EFAFFF7AAFA034683F00103DBB2B2
:10B52400002B02D187E700BF00E000BF00BF09B0D5
:10B534005DF804FB702800207428002030280400E3
:10B5440008B501210548FDF797FA0346002B02D1FF
:10B554000020FFF76DFF00BF08BD00BFF0270020EB
:10B5640000B583B00190019B5B681846FFF760FF4C
:10B5740000BF03B05DF804FB00B58BB003900291EB
:10B5840001928DF803300023ADF824300023ADF888
:10B594002630514B1B78DBB283F00103DBB2002B66
:10B5A40001D0022393E0029B002B01D105238EE0FE
:10B5B400029B1B884FF6FF72934203D0029B5B8869
:10B5C400002B01D1042382E0029B5B681846FEF73E
:10B5D4009BFE034683F00103DBB2002B01D003235F
:10B5E40075E0019B002B11D1029B9B68ADF82630BE
:10B5F4000DF11A02BDF8263011461846FFF73EF841
:10B604000890089B002B09D0089B60E0019B1B88D5
:10B61400ADF81A30019B5B88ADF8263005AB1846AF
:10B62400FFF7E2F90790079B002B09D1BDF81A2018
:10B63400BDF8263011461846FFF788F8082346E07F
:10B64400079B9DF803201A70079B00229A75BDF88A
:10B654001A20079B9A82029B5A68079B1A61FFF77C
:10B664009DF80246079BDA60029B1A88079B1A81A1
:10B67400029B5A88079B9A80079BBDF82620DA8094
:10B684009DF80330032B06D1079B04229A75039B74
:10B694001A68079B9A61079BBDF824205A8105AB61
:10B6A4001846FFF7B7F9039B002B0DD0039B00222C
:10B6B4005A60079BDA68039B1A60039B00229A7204
:10B6C400064B1A89039B1A81FFF73AFF0023184699
:10B6D4000BB05DF804FB00BFE827002048280020D9
:10B6E40000B585B001900091019B002B02D0009B16
:10B6F400002B01D1052329E00DF10A031946019815
:10B70400FFF7AAF80346002B1FD0019B5B68039345
:10B71400BDF80A301A4613469B0013449B000833B5
:10B724000C4A1344043301211846FDF7BDF9009B6C
:10B73400039A1A60019B5B6803F10C02009B5A6038
:10B74400019B01229A72002300E00A23184605B0E7
:10B754005DF804FB1828002000B585B00190019B1A
:10B76400002B01D1052339E00DF10A031946019894
:10B77400FFF772F80346002B2DD0BDF80A301946A6
:10B78400184A0B469B000B449B0013440C331B6864
:10B79400002B1DD0019B9B7A002B19D0BDF80A30D9
:10B7A4001A46104913469B0013449B000B440C3368
:10B7B4001B68591E0B4813469B0013449B0003440B
:10B7C4000C331960019B00229A720023039304E056
:10B7D4000623039301E00A230393039B184605B051
:10B7E4005DF804FB1828002000B583B00190009197
:10B7F4000223002200990198FFF7BEFE0346184673
:10B8040003B05DF804FB00B583B001900091019B87
:10B81400002B01D1052306E003230022009901989F
:10B82400FFF7AAFE0346184603B05DF804FB0000C8
:10B8340000B585B00346ADF80630184B1B78DBB273
:10B8440083F00103DBB2002B01D0022322E0BDF818
:10B8540006304FF6FF72934201D104231AE002AB83
:10B864001846FFF7C1F80390039B002B01D108236E
:10B8740010E0039B05221A70039B01221A71039B9B
:10B88400BDF80620DA8002AB1846FFF7C3F8FFF7CD
:10B8940057FE0023184605B05DF804FBE827002096
:10B8A40000B585B0029201930346ADF80E300B4605
:10B8B400ADF80C3003A90DF10E00019B029AFFF7BD
:10B8C40025F80346184605B05DF804FB00B585B0BD
:10B8D400034602910192ADF80E300DF10E01019B69
:10B8E400029A0020FFF712F80346184605B05DF8E7
:10B8F40004FB00B585B0034602910192ADF80E3009
:10B904000DF10E00019B029A0021FEF7FFFF034692
:10B91400184605B05DF804FB82B001900091019BCC
:10B92400002B02D0009B002B01D1052304E0019BD6
:10B934001A68009B1A600023184602B07047000082
:10B9440000B585B00190019800F00EF80390039BB8
:10B95400002B01D0039B00E0024B184605B05DF8B4
:10B9640004FB00BF9028040086B00190164B059399
:10B97400164B04931FE0049A059BD31ADB10DA0FCD
:10B9840013445B10DB00059A13440393039B1B6869
:10B994000293029A019B9A4202D9039B04930AE000
:10B9A400029A019B9A4203D2039B0833059302E057
:10B9B400039B5B6804E0059A049B9A42DBD3002353
:10B9C400184606B0704700BF902C0400B82D040040
:10B9D40082B00190019B9B6800229A60019B9B6846
:10B9E40000221A61019B9B6800225A61019B9B689B
:10B9F4000022DA60019B9B6800225A60019B9B68CD
:10BA040000221A6000BF02B0704700B589B00390ED
:10BA140002910192009304AB1A460299039800F034
:10BA240089F80790079B002B01D0079B07E004AB24
:10BA3400009A0199184600F006F80790079B1846EB
:10BA440009B05DF804FB00B58DB005900491039234
:10BA5400039B1B680B9300230693059B5B680A9367
:10BA6400059B9B6809935DE00B9B06930DF11F02F8
:10BA740006AB0093049B09990A9800F0BBF8089060
:10BA8400089B002B01D0089B50E0059B1B689B681A
:10BA9400002B09D19DF81F30802B0FD09DF81F304B
:10BAA400C02B0BD00B2341E09DF81F30002B05D099
:10BAB4009DF81F30402B01D00B2337E0059B1B68FA
:10BAC400099918460DF038F80890089B002B01D00E
